{"contracts/MockEIP712Decoder.sol":{"MockEIP712Decoder":{"abi":[{"inputs":[{"internalType":"uint256","name":"chainId","type":"uint256"}],"stateMutability":"nonpayable","type":"constructor"},{"inputs":[{"components":[{"internalType":"string","name":"name","type":"string"},{"internalType":"string","name":"version","type":"string"},{"internalType":"uint256","name":"chainId","type":"uint256"}],"internalType":"struct EIP712Domain","name":"_input","type":"tuple"}],"name":"GET_EIP712DOMAIN_PACKETHASH","outputs":[{"internalType":"bytes32","name":"","type":"bytes32"}],"stateMutability":"pure","type":"function"},{"inputs":[{"components":[{"internalType":"string","name":"name","type":"string"},{"internalType":"uint256","name":"age","type":"uint256"}],"internalType":"struct Person","name":"_input","type":"tuple"}],"name":"GET_PERSON_PACKETHASH","outputs":[{"internalType":"bytes32","name":"","type":"bytes32"}],"stateMutability":"pure","type":"function"},{"inputs":[],"name":"getDomainHash","outputs":[{"internalType":"bytes32","name":"","type":"bytes32"}],"stateMutability":"view","type":"function"},{"inputs":[{"components":[{"internalType":"bytes","name":"signature","type":"bytes"},{"internalType":"address","name":"signer","type":"address"},{"components":[{"internalType":"string","name":"name","type":"string"},{"internalType":"uint256","name":"age","type":"uint256"}],"internalType":"struct Person","name":"message","type":"tuple"}],"internalType":"struct signedPerson","name":"_input","type":"tuple"}],"name":"verifySignedPerson","outputs":[{"internalType":"address","name":"","type":"address"}],"stateMutability":"view","type":"function"}],"evm":{"bytecode":{"linkReferences":{},"object":"60806040523480156200001157600080fd5b506040516200105b3803806200105b83398181016040528101906200003791906200014d565b7fc2f8787176b8ac6bf7215b4adcc1e069bf4ab82d9ab1df05a57a91d425935b6e6040518060400160405280601181526020017f4d6f636b4549503731324465636f646572000000000000000000000000000000815250805190602001206040518060400160405280600181526020017f3100000000000000000000000000000000000000000000000000000000000000815250805190602001208330604051602001620000ea959493929190620001f0565b60405160208183030381529060405280519060200120600081905550506200024d565b600080fd5b6000819050919050565b620001278162000112565b81146200013357600080fd5b50565b60008151905062000147816200011c565b92915050565b6000602082840312156200016657620001656200010d565b5b6000620001768482850162000136565b91505092915050565b6000819050919050565b62000194816200017f565b82525050565b620001a58162000112565b82525050565b600073ffffffffffffffffffffffffffffffffffffffff82169050919050565b6000620001d882620001ab565b9050919050565b620001ea81620001cb565b82525050565b600060a08201905062000207600083018862000189565b62000216602083018762000189565b62000225604083018662000189565b6200023460608301856200019a565b620002436080830184620001df565b9695505050505050565b610dfe806200025d6000396000f3fe608060405234801561001057600080fd5b506004361061004c5760003560e01c80634bc391621461005157806383ebb771146100815780638f4f876a1461009f578063ea23cf6e146100cf575b600080fd5b61006b60048036038101906100669190610674565b6100ff565b60405161007891906106d6565b60405180910390f35b610089610166565b60405161009691906106d6565b60405180910390f35b6100b960048036038101906100b4919061075d565b61016f565b6040516100c691906106d6565b60405180910390f35b6100e960048036038101906100e49190610941565b6101d0565b6040516100f69190610999565b60405180910390f35b6000807fc2f8787176b8ac6bf7215b4adcc1e069bf4ab82d9ab1df05a57a91d425935b6e8360000151846020015185604001516040516020016101459493929190610a4b565b60405160208183030381529060405290508080519060200120915050919050565b60008054905090565b6000807f4b1b66e1dad0eb5853b62dd86ebac7b66c400129b72da1ff5fda43303a4f44db836000015184602001516040516020016101af93929190610a9e565b60405160208183030381529060405290508080519060200120915050919050565b6000806101e0836040015161016f565b905060006101ec610166565b826040516020016101fe929190610b54565b604051602081830303815290604052805190602001209050600073ffffffffffffffffffffffffffffffffffffffff16846020015173ffffffffffffffffffffffffffffffffffffffff160361026b57600061025e82866000015161036b565b9050809350505050610366565b6000846020015173ffffffffffffffffffffffffffffffffffffffff16631626ba7e8387600001516040518363ffffffff1660e01b81526004016102b0929190610be0565b602060405180830381865afa1580156102cd573d6000803e3d6000fd5b505050506040513d601f19601f820116820180604052508101906102f19190610c68565b9050631626ba7e60e01b817bffffffffffffffffffffffffffffffffffffffffffffffffffffffff19161461035b576040517f08c379a000000000000000000000000000000000000000000000000000000000815260040161035290610ce1565b60405180910390fd5b846020015193505050505b919050565b60008060008060418551146103865760009350505050610438565b6020850151925060408501519150606085015160001a9050601b8160ff1610156103ba57601b816103b79190610d3d565b90505b601b8160ff16141580156103d25750601c8160ff1614155b156103e35760009350505050610438565b600186828585604051600081526020016040526040516104069493929190610d83565b6020604051602081039080840390855afa158015610428573d6000803e3d6000fd5b5050506020604051035193505050505b92915050565b6000604051905090565b600080fd5b600080fd5b600080fd5b6000601f19601f8301169050919050565b7f4e487b7100000000000000000000000000000000000000000000000000000000600052604160045260246000fd5b6104a082610457565b810181811067ffffffffffffffff821117156104bf576104be610468565b5b80604052505050565b60006104d261043e565b90506104de8282610497565b919050565b600080fd5b600080fd5b600080fd5b600067ffffffffffffffff82111561050d5761050c610468565b5b61051682610457565b9050602081019050919050565b82818337600083830152505050565b6000610545610540846104f2565b6104c8565b905082815260208101848484011115610561576105606104ed565b5b61056c848285610523565b509392505050565b600082601f830112610589576105886104e8565b5b8135610599848260208601610532565b91505092915050565b6000819050919050565b6105b5816105a2565b81146105c057600080fd5b50565b6000813590506105d2816105ac565b92915050565b6000606082840312156105ee576105ed610452565b5b6105f860606104c8565b9050600082013567ffffffffffffffff811115610618576106176104e3565b5b61062484828501610574565b600083015250602082013567ffffffffffffffff811115610648576106476104e3565b5b61065484828501610574565b6020830152506040610668848285016105c3565b60408301525092915050565b60006020828403121561068a57610689610448565b5b600082013567ffffffffffffffff8111156106a8576106a761044d565b5b6106b4848285016105d8565b91505092915050565b6000819050919050565b6106d0816106bd565b82525050565b60006020820190506106eb60008301846106c7565b92915050565b60006040828403121561070757610706610452565b5b61071160406104c8565b9050600082013567ffffffffffffffff811115610731576107306104e3565b5b61073d84828501610574565b6000830152506020610751848285016105c3565b60208301525092915050565b60006020828403121561077357610772610448565b5b600082013567ffffffffffffffff8111156107915761079061044d565b5b61079d848285016106f1565b91505092915050565b600067ffffffffffffffff8211156107c1576107c0610468565b5b6107ca82610457565b9050602081019050919050565b60006107ea6107e5846107a6565b6104c8565b905082815260208101848484011115610806576108056104ed565b5b610811848285610523565b509392505050565b600082601f83011261082e5761082d6104e8565b5b813561083e8482602086016107d7565b91505092915050565b600073ffffffffffffffffffffffffffffffffffffffff82169050919050565b600061087282610847565b9050919050565b61088281610867565b811461088d57600080fd5b50565b60008135905061089f81610879565b92915050565b6000606082840312156108bb576108ba610452565b5b6108c560606104c8565b9050600082013567ffffffffffffffff8111156108e5576108e46104e3565b5b6108f184828501610819565b600083015250602061090584828501610890565b602083015250604082013567ffffffffffffffff811115610929576109286104e3565b5b610935848285016106f1565b60408301525092915050565b60006020828403121561095757610956610448565b5b600082013567ffffffffffffffff8111156109755761097461044d565b5b610981848285016108a5565b91505092915050565b61099381610867565b82525050565b60006020820190506109ae600083018461098a565b92915050565b600081519050919050565b600082825260208201905092915050565b60005b838110156109ee5780820151818401526020810190506109d3565b838111156109fd576000848401525b50505050565b6000610a0e826109b4565b610a1881856109bf565b9350610a288185602086016109d0565b610a3181610457565b840191505092915050565b610a45816105a2565b82525050565b6000608082019050610a6060008301876106c7565b8181036020830152610a728186610a03565b90508181036040830152610a868185610a03565b9050610a956060830184610a3c565b95945050505050565b6000606082019050610ab360008301866106c7565b8181036020830152610ac58185610a03565b9050610ad46040830184610a3c565b949350505050565b600081905092915050565b7f1901000000000000000000000000000000000000000000000000000000000000600082015250565b6000610b1d600283610adc565b9150610b2882610ae7565b600282019050919050565b6000819050919050565b610b4e610b49826106bd565b610b33565b82525050565b6000610b5f82610b10565b9150610b6b8285610b3d565b602082019150610b7b8284610b3d565b6020820191508190509392505050565b600081519050919050565b600082825260208201905092915050565b6000610bb282610b8b565b610bbc8185610b96565b9350610bcc8185602086016109d0565b610bd581610457565b840191505092915050565b6000604082019050610bf560008301856106c7565b8181036020830152610c078184610ba7565b90509392505050565b60007fffffffff0000000000000000000000000000000000000000000000000000000082169050919050565b610c4581610c10565b8114610c5057600080fd5b50565b600081519050610c6281610c3c565b92915050565b600060208284031215610c7e57610c7d610448565b5b6000610c8c84828501610c53565b91505092915050565b7f494e56414c49445f5349474e4154555245000000000000000000000000000000600082015250565b6000610ccb6011836109bf565b9150610cd682610c95565b602082019050919050565b60006020820190508181036000830152610cfa81610cbe565b9050919050565b600060ff82169050919050565b7f4e487b7100000000000000000000000000000000000000000000000000000000600052601160045260246000fd5b6000610d4882610d01565b9150610d5383610d01565b92508260ff03821115610d6957610d68610d0e565b5b828201905092915050565b610d7d81610d01565b82525050565b6000608082019050610d9860008301876106c7565b610da56020830186610d74565b610db260408301856106c7565b610dbf60608301846106c7565b9594505050505056fea2646970667358221220ca0a05a510565d9ee49471de5fd24a13ae81e1ff3aee845a020d6cb87285bdc764736f6c634300080d0033","opcodes":"PUSH1 0x80 PUSH1 0x40 MSTORE CALLVALUE DUP1 ISZERO PUSH3 0x11 JUMPI PUSH1 0x0 DUP1 REVERT JUMPDEST POP PUSH1 0x40 MLOAD PUSH3 0x105B CODESIZE SUB DUP1 PUSH3 0x105B DUP4 CODECOPY DUP2 DUP2 ADD PUSH1 0x40 MSTORE DUP2 ADD SWAP1 PUSH3 0x37 SWAP2 SWAP1 PUSH3 0x14D JUMP JUMPDEST PUSH32 0xC2F8787176B8AC6BF7215B4ADCC1E069BF4AB82D9AB1DF05A57A91D425935B6E PUSH1 0x40 MLOAD DUP1 PUSH1 0x40 ADD PUSH1 0x40 MSTORE DUP1 PUSH1 0x11 DUP2 MSTORE PUSH1 0x20 ADD PUSH32 0x4D6F636B4549503731324465636F646572000000000000000000000000000000 DUP2 MSTORE POP DUP1 MLOAD SWAP1 PUSH1 0x20 ADD KECCAK256 PUSH1 0x40 MLOAD DUP1 PUSH1 0x40 ADD PUSH1 0x40 MSTORE DUP1 PUSH1 0x1 DUP2 MSTORE PUSH1 0x20 ADD PUSH32 0x3100000000000000000000000000000000000000000000000000000000000000 DUP2 MSTORE POP DUP1 MLOAD SWAP1 PUSH1 0x20 ADD KECCAK256 DUP4 ADDRESS PUSH1 0x40 MLOAD PUSH1 0x20 ADD PUSH3 0xEA SWAP6 SWAP5 SWAP4 SWAP3 SWAP2 SWAP1 PUSH3 0x1F0 JUMP JUMPDEST PUSH1 0x40 MLOAD PUSH1 0x20 DUP2 DUP4 SUB SUB DUP2 MSTORE SWAP1 PUSH1 0x40 MSTORE DUP1 MLOAD SWAP1 PUSH1 0x20 ADD KECCAK256 PUSH1 0x0 DUP2 SWAP1 SSTORE POP POP PUSH3 0x24D JUMP JUMPDEST PUSH1 0x0 DUP1 REVERT JUMPDEST PUSH1 0x0 DUP2 SWAP1 POP SWAP2 SWAP1 POP JUMP JUMPDEST PUSH3 0x127 DUP2 PUSH3 0x112 JUMP JUMPDEST DUP2 EQ PUSH3 0x133 JUMPI PUSH1 0x0 DUP1 REVERT JUMPDEST POP JUMP JUMPDEST PUSH1 0x0 DUP2 MLOAD SWAP1 POP PUSH3 0x147 DUP2 PUSH3 0x11C JUMP JUMPDEST SWAP3 SWAP2 POP POP JUMP JUMPDEST PUSH1 0x0 PUSH1 0x20 DUP3 DUP5 SUB SLT ISZERO PUSH3 0x166 JUMPI PUSH3 0x165 PUSH3 0x10D JUMP JUMPDEST JUMPDEST PUSH1 0x0 PUSH3 0x176 DUP5 DUP3 DUP6 ADD PUSH3 0x136 JUMP JUMPDEST SWAP2 POP POP SWAP3 SWAP2 POP POP JUMP JUMPDEST PUSH1 0x0 DUP2 SWAP1 POP SWAP2 SWAP1 POP JUMP JUMPDEST PUSH3 0x194 DUP2 PUSH3 0x17F JUMP JUMPDEST DUP3 MSTORE POP POP JUMP JUMPDEST PUSH3 0x1A5 DUP2 PUSH3 0x112 JUMP JUMPDEST DUP3 MSTORE POP POP JUMP JUMPDEST PUSH1 0x0 PUSH20 0xFFFFFFFFFFFFFFFFFFFFFFFFFFFFFFFFFFFFFFFF DUP3 AND SWAP1 POP SWAP2 SWAP1 POP JUMP JUMPDEST PUSH1 0x0 PUSH3 0x1D8 DUP3 PUSH3 0x1AB JUMP JUMPDEST SWAP1 POP SWAP2 SWAP1 POP JUMP JUMPDEST PUSH3 0x1EA DUP2 PUSH3 0x1CB JUMP JUMPDEST DUP3 MSTORE POP POP JUMP JUMPDEST PUSH1 0x0 PUSH1 0xA0 DUP3 ADD SWAP1 POP PUSH3 0x207 PUSH1 0x0 DUP4 ADD DUP9 PUSH3 0x189 JUMP JUMPDEST PUSH3 0x216 PUSH1 0x20 DUP4 ADD DUP8 PUSH3 0x189 JUMP JUMPDEST PUSH3 0x225 PUSH1 0x40 DUP4 ADD DUP7 PUSH3 0x189 JUMP JUMPDEST PUSH3 0x234 PUSH1 0x60 DUP4 ADD DUP6 PUSH3 0x19A JUMP JUMPDEST PUSH3 0x243 PUSH1 0x80 DUP4 ADD DUP5 PUSH3 0x1DF JUMP JUMPDEST SWAP7 SWAP6 POP POP POP POP POP POP JUMP JUMPDEST PUSH2 0xDFE DUP1 PUSH3 0x25D PUSH1 0x0 CODECOPY PUSH1 0x0 RETURN INVALID PUSH1 0x80 PUSH1 0x40 MSTORE CALLVALUE DUP1 ISZERO PUSH2 0x10 JUMPI PUSH1 0x0 DUP1 REVERT JUMPDEST POP PUSH1 0x4 CALLDATASIZE LT PUSH2 0x4C JUMPI PUSH1 0x0 CALLDATALOAD PUSH1 0xE0 SHR DUP1 PUSH4 0x4BC39162 EQ PUSH2 0x51 JUMPI DUP1 PUSH4 0x83EBB771 EQ PUSH2 0x81 JUMPI DUP1 PUSH4 0x8F4F876A EQ PUSH2 0x9F JUMPI DUP1 PUSH4 0xEA23CF6E EQ PUSH2 0xCF JUMPI JUMPDEST PUSH1 0x0 DUP1 REVERT JUMPDEST PUSH2 0x6B PUSH1 0x4 DUP1 CALLDATASIZE SUB DUP2 ADD SWAP1 PUSH2 0x66 SWAP2 SWAP1 PUSH2 0x674 JUMP JUMPDEST PUSH2 0xFF JUMP JUMPDEST PUSH1 0x40 MLOAD PUSH2 0x78 SWAP2 SWAP1 PUSH2 0x6D6 JUMP JUMPDEST PUSH1 0x40 MLOAD DUP1 SWAP2 SUB SWAP1 RETURN JUMPDEST PUSH2 0x89 PUSH2 0x166 JUMP JUMPDEST PUSH1 0x40 MLOAD PUSH2 0x96 SWAP2 SWAP1 PUSH2 0x6D6 JUMP JUMPDEST PUSH1 0x40 MLOAD DUP1 SWAP2 SUB SWAP1 RETURN JUMPDEST PUSH2 0xB9 PUSH1 0x4 DUP1 CALLDATASIZE SUB DUP2 ADD SWAP1 PUSH2 0xB4 SWAP2 SWAP1 PUSH2 0x75D JUMP JUMPDEST PUSH2 0x16F JUMP JUMPDEST PUSH1 0x40 MLOAD PUSH2 0xC6 SWAP2 SWAP1 PUSH2 0x6D6 JUMP JUMPDEST PUSH1 0x40 MLOAD DUP1 SWAP2 SUB SWAP1 RETURN JUMPDEST PUSH2 0xE9 PUSH1 0x4 DUP1 CALLDATASIZE SUB DUP2 ADD SWAP1 PUSH2 0xE4 SWAP2 SWAP1 PUSH2 0x941 JUMP JUMPDEST PUSH2 0x1D0 JUMP JUMPDEST PUSH1 0x40 MLOAD PUSH2 0xF6 SWAP2 SWAP1 PUSH2 0x999 JUMP JUMPDEST PUSH1 0x40 MLOAD DUP1 SWAP2 SUB SWAP1 RETURN JUMPDEST PUSH1 0x0 DUP1 PUSH32 0xC2F8787176B8AC6BF7215B4ADCC1E069BF4AB82D9AB1DF05A57A91D425935B6E DUP4 PUSH1 0x0 ADD MLOAD DUP5 PUSH1 0x20 ADD MLOAD DUP6 PUSH1 0x40 ADD MLOAD PUSH1 0x40 MLOAD PUSH1 0x20 ADD PUSH2 0x145 SWAP5 SWAP4 SWAP3 SWAP2 SWAP1 PUSH2 0xA4B JUMP JUMPDEST PUSH1 0x40 MLOAD PUSH1 0x20 DUP2 DUP4 SUB SUB DUP2 MSTORE SWAP1 PUSH1 0x40 MSTORE SWAP1 POP DUP1 DUP1 MLOAD SWAP1 PUSH1 0x20 ADD KECCAK256 SWAP2 POP POP SWAP2 SWAP1 POP JUMP JUMPDEST PUSH1 0x0 DUP1 SLOAD SWAP1 POP SWAP1 JUMP JUMPDEST PUSH1 0x0 DUP1 PUSH32 0x4B1B66E1DAD0EB5853B62DD86EBAC7B66C400129B72DA1FF5FDA43303A4F44DB DUP4 PUSH1 0x0 ADD MLOAD DUP5 PUSH1 0x20 ADD MLOAD PUSH1 0x40 MLOAD PUSH1 0x20 ADD PUSH2 0x1AF SWAP4 SWAP3 SWAP2 SWAP1 PUSH2 0xA9E JUMP JUMPDEST PUSH1 0x40 MLOAD PUSH1 0x20 DUP2 DUP4 SUB SUB DUP2 MSTORE SWAP1 PUSH1 0x40 MSTORE SWAP1 POP DUP1 DUP1 MLOAD SWAP1 PUSH1 0x20 ADD KECCAK256 SWAP2 POP POP SWAP2 SWAP1 POP JUMP JUMPDEST PUSH1 0x0 DUP1 PUSH2 0x1E0 DUP4 PUSH1 0x40 ADD MLOAD PUSH2 0x16F JUMP JUMPDEST SWAP1 POP PUSH1 0x0 PUSH2 0x1EC PUSH2 0x166 JUMP JUMPDEST DUP3 PUSH1 0x40 MLOAD PUSH1 0x20 ADD PUSH2 0x1FE SWAP3 SWAP2 SWAP1 PUSH2 0xB54 JUMP JUMPDEST PUSH1 0x40 MLOAD PUSH1 0x20 DUP2 DUP4 SUB SUB DUP2 MSTORE SWAP1 PUSH1 0x40 MSTORE DUP1 MLOAD SWAP1 PUSH1 0x20 ADD KECCAK256 SWAP1 POP PUSH1 0x0 PUSH20 0xFFFFFFFFFFFFFFFFFFFFFFFFFFFFFFFFFFFFFFFF AND DUP5 PUSH1 0x20 ADD MLOAD PUSH20 0xFFFFFFFFFFFFFFFFFFFFFFFFFFFFFFFFFFFFFFFF AND SUB PUSH2 0x26B JUMPI PUSH1 0x0 PUSH2 0x25E DUP3 DUP7 PUSH1 0x0 ADD MLOAD PUSH2 0x36B JUMP JUMPDEST SWAP1 POP DUP1 SWAP4 POP POP POP POP PUSH2 0x366 JUMP JUMPDEST PUSH1 0x0 DUP5 PUSH1 0x20 ADD MLOAD PUSH20 0xFFFFFFFFFFFFFFFFFFFFFFFFFFFFFFFFFFFFFFFF AND PUSH4 0x1626BA7E DUP4 DUP8 PUSH1 0x0 ADD MLOAD PUSH1 0x40 MLOAD DUP4 PUSH4 0xFFFFFFFF AND PUSH1 0xE0 SHL DUP2 MSTORE PUSH1 0x4 ADD PUSH2 0x2B0 SWAP3 SWAP2 SWAP1 PUSH2 0xBE0 JUMP JUMPDEST PUSH1 0x20 PUSH1 0x40 MLOAD DUP1 DUP4 SUB DUP2 DUP7 GAS STATICCALL ISZERO DUP1 ISZERO PUSH2 0x2CD JUMPI RETURNDATASIZE PUSH1 0x0 DUP1 RETURNDATACOPY RETURNDATASIZE PUSH1 0x0 REVERT JUMPDEST POP POP POP POP PUSH1 0x40 MLOAD RETURNDATASIZE PUSH1 0x1F NOT PUSH1 0x1F DUP3 ADD AND DUP3 ADD DUP1 PUSH1 0x40 MSTORE POP DUP2 ADD SWAP1 PUSH2 0x2F1 SWAP2 SWAP1 PUSH2 0xC68 JUMP JUMPDEST SWAP1 POP PUSH4 0x1626BA7E PUSH1 0xE0 SHL DUP2 PUSH28 0xFFFFFFFFFFFFFFFFFFFFFFFFFFFFFFFFFFFFFFFFFFFFFFFFFFFFFFFF NOT AND EQ PUSH2 0x35B JUMPI PUSH1 0x40 MLOAD PUSH32 0x8C379A000000000000000000000000000000000000000000000000000000000 DUP2 MSTORE PUSH1 0x4 ADD PUSH2 0x352 SWAP1 PUSH2 0xCE1 JUMP JUMPDEST PUSH1 0x40 MLOAD DUP1 SWAP2 SUB SWAP1 REVERT JUMPDEST DUP5 PUSH1 0x20 ADD MLOAD SWAP4 POP POP POP POP JUMPDEST SWAP2 SWAP1 POP JUMP JUMPDEST PUSH1 0x0 DUP1 PUSH1 0x0 DUP1 PUSH1 0x41 DUP6 MLOAD EQ PUSH2 0x386 JUMPI PUSH1 0x0 SWAP4 POP POP POP POP PUSH2 0x438 JUMP JUMPDEST PUSH1 0x20 DUP6 ADD MLOAD SWAP3 POP PUSH1 0x40 DUP6 ADD MLOAD SWAP2 POP PUSH1 0x60 DUP6 ADD MLOAD PUSH1 0x0 BYTE SWAP1 POP PUSH1 0x1B DUP2 PUSH1 0xFF AND LT ISZERO PUSH2 0x3BA JUMPI PUSH1 0x1B DUP2 PUSH2 0x3B7 SWAP2 SWAP1 PUSH2 0xD3D JUMP JUMPDEST SWAP1 POP JUMPDEST PUSH1 0x1B DUP2 PUSH1 0xFF AND EQ ISZERO DUP1 ISZERO PUSH2 0x3D2 JUMPI POP PUSH1 0x1C DUP2 PUSH1 0xFF AND EQ ISZERO JUMPDEST ISZERO PUSH2 0x3E3 JUMPI PUSH1 0x0 SWAP4 POP POP POP POP PUSH2 0x438 JUMP JUMPDEST PUSH1 0x1 DUP7 DUP3 DUP6 DUP6 PUSH1 0x40 MLOAD PUSH1 0x0 DUP2 MSTORE PUSH1 0x20 ADD PUSH1 0x40 MSTORE PUSH1 0x40 MLOAD PUSH2 0x406 SWAP5 SWAP4 SWAP3 SWAP2 SWAP1 PUSH2 0xD83 JUMP JUMPDEST PUSH1 0x20 PUSH1 0x40 MLOAD PUSH1 0x20 DUP2 SUB SWAP1 DUP1 DUP5 SUB SWAP1 DUP6 GAS STATICCALL ISZERO DUP1 ISZERO PUSH2 0x428 JUMPI RETURNDATASIZE PUSH1 0x0 DUP1 RETURNDATACOPY RETURNDATASIZE PUSH1 0x0 REVERT JUMPDEST POP POP POP PUSH1 0x20 PUSH1 0x40 MLOAD SUB MLOAD SWAP4 POP POP POP POP JUMPDEST SWAP3 SWAP2 POP POP JUMP JUMPDEST PUSH1 0x0 PUSH1 0x40 MLOAD SWAP1 POP SWAP1 JUMP JUMPDEST PUSH1 0x0 DUP1 REVERT JUMPDEST PUSH1 0x0 DUP1 REVERT JUMPDEST PUSH1 0x0 DUP1 REVERT JUMPDEST PUSH1 0x0 PUSH1 0x1F NOT PUSH1 0x1F DUP4 ADD AND SWAP1 POP SWAP2 SWAP1 POP JUMP JUMPDEST PUSH32 0x4E487B7100000000000000000000000000000000000000000000000000000000 PUSH1 0x0 MSTORE PUSH1 0x41 PUSH1 0x4 MSTORE PUSH1 0x24 PUSH1 0x0 REVERT JUMPDEST PUSH2 0x4A0 DUP3 PUSH2 0x457 JUMP JUMPDEST DUP2 ADD DUP2 DUP2 LT PUSH8 0xFFFFFFFFFFFFFFFF DUP3 GT OR ISZERO PUSH2 0x4BF JUMPI PUSH2 0x4BE PUSH2 0x468 JUMP JUMPDEST JUMPDEST DUP1 PUSH1 0x40 MSTORE POP POP POP JUMP JUMPDEST PUSH1 0x0 PUSH2 0x4D2 PUSH2 0x43E JUMP JUMPDEST SWAP1 POP PUSH2 0x4DE DUP3 DUP3 PUSH2 0x497 JUMP JUMPDEST SWAP2 SWAP1 POP JUMP JUMPDEST PUSH1 0x0 DUP1 REVERT JUMPDEST PUSH1 0x0 DUP1 REVERT JUMPDEST PUSH1 0x0 DUP1 REVERT JUMPDEST PUSH1 0x0 PUSH8 0xFFFFFFFFFFFFFFFF DUP3 GT ISZERO PUSH2 0x50D JUMPI PUSH2 0x50C PUSH2 0x468 JUMP JUMPDEST JUMPDEST PUSH2 0x516 DUP3 PUSH2 0x457 JUMP JUMPDEST SWAP1 POP PUSH1 0x20 DUP2 ADD SWAP1 POP SWAP2 SWAP1 POP JUMP JUMPDEST DUP3 DUP2 DUP4 CALLDATACOPY PUSH1 0x0 DUP4 DUP4 ADD MSTORE POP POP POP JUMP JUMPDEST PUSH1 0x0 PUSH2 0x545 PUSH2 0x540 DUP5 PUSH2 0x4F2 JUMP JUMPDEST PUSH2 0x4C8 JUMP JUMPDEST SWAP1 POP DUP3 DUP2 MSTORE PUSH1 0x20 DUP2 ADD DUP5 DUP5 DUP5 ADD GT ISZERO PUSH2 0x561 JUMPI PUSH2 0x560 PUSH2 0x4ED JUMP JUMPDEST JUMPDEST PUSH2 0x56C DUP5 DUP3 DUP6 PUSH2 0x523 JUMP JUMPDEST POP SWAP4 SWAP3 POP POP POP JUMP JUMPDEST PUSH1 0x0 DUP3 PUSH1 0x1F DUP4 ADD SLT PUSH2 0x589 JUMPI PUSH2 0x588 PUSH2 0x4E8 JUMP JUMPDEST JUMPDEST DUP2 CALLDATALOAD PUSH2 0x599 DUP5 DUP3 PUSH1 0x20 DUP7 ADD PUSH2 0x532 JUMP JUMPDEST SWAP2 POP POP SWAP3 SWAP2 POP POP JUMP JUMPDEST PUSH1 0x0 DUP2 SWAP1 POP SWAP2 SWAP1 POP JUMP JUMPDEST PUSH2 0x5B5 DUP2 PUSH2 0x5A2 JUMP JUMPDEST DUP2 EQ PUSH2 0x5C0 JUMPI PUSH1 0x0 DUP1 REVERT JUMPDEST POP JUMP JUMPDEST PUSH1 0x0 DUP2 CALLDATALOAD SWAP1 POP PUSH2 0x5D2 DUP2 PUSH2 0x5AC JUMP JUMPDEST SWAP3 SWAP2 POP POP JUMP JUMPDEST PUSH1 0x0 PUSH1 0x60 DUP3 DUP5 SUB SLT ISZERO PUSH2 0x5EE JUMPI PUSH2 0x5ED PUSH2 0x452 JUMP JUMPDEST JUMPDEST PUSH2 0x5F8 PUSH1 0x60 PUSH2 0x4C8 JUMP JUMPDEST SWAP1 POP PUSH1 0x0 DUP3 ADD CALLDATALOAD PUSH8 0xFFFFFFFFFFFFFFFF DUP2 GT ISZERO PUSH2 0x618 JUMPI PUSH2 0x617 PUSH2 0x4E3 JUMP JUMPDEST JUMPDEST PUSH2 0x624 DUP5 DUP3 DUP6 ADD PUSH2 0x574 JUMP JUMPDEST PUSH1 0x0 DUP4 ADD MSTORE POP PUSH1 0x20 DUP3 ADD CALLDATALOAD PUSH8 0xFFFFFFFFFFFFFFFF DUP2 GT ISZERO PUSH2 0x648 JUMPI PUSH2 0x647 PUSH2 0x4E3 JUMP JUMPDEST JUMPDEST PUSH2 0x654 DUP5 DUP3 DUP6 ADD PUSH2 0x574 JUMP JUMPDEST PUSH1 0x20 DUP4 ADD MSTORE POP PUSH1 0x40 PUSH2 0x668 DUP5 DUP3 DUP6 ADD PUSH2 0x5C3 JUMP JUMPDEST PUSH1 0x40 DUP4 ADD MSTORE POP SWAP3 SWAP2 POP POP JUMP JUMPDEST PUSH1 0x0 PUSH1 0x20 DUP3 DUP5 SUB SLT ISZERO PUSH2 0x68A JUMPI PUSH2 0x689 PUSH2 0x448 JUMP JUMPDEST JUMPDEST PUSH1 0x0 DUP3 ADD CALLDATALOAD PUSH8 0xFFFFFFFFFFFFFFFF DUP2 GT ISZERO PUSH2 0x6A8 JUMPI PUSH2 0x6A7 PUSH2 0x44D JUMP JUMPDEST JUMPDEST PUSH2 0x6B4 DUP5 DUP3 DUP6 ADD PUSH2 0x5D8 JUMP JUMPDEST SWAP2 POP POP SWAP3 SWAP2 POP POP JUMP JUMPDEST PUSH1 0x0 DUP2 SWAP1 POP SWAP2 SWAP1 POP JUMP JUMPDEST PUSH2 0x6D0 DUP2 PUSH2 0x6BD JUMP JUMPDEST DUP3 MSTORE POP POP JUMP JUMPDEST PUSH1 0x0 PUSH1 0x20 DUP3 ADD SWAP1 POP PUSH2 0x6EB PUSH1 0x0 DUP4 ADD DUP5 PUSH2 0x6C7 JUMP JUMPDEST SWAP3 SWAP2 POP POP JUMP JUMPDEST PUSH1 0x0 PUSH1 0x40 DUP3 DUP5 SUB SLT ISZERO PUSH2 0x707 JUMPI PUSH2 0x706 PUSH2 0x452 JUMP JUMPDEST JUMPDEST PUSH2 0x711 PUSH1 0x40 PUSH2 0x4C8 JUMP JUMPDEST SWAP1 POP PUSH1 0x0 DUP3 ADD CALLDATALOAD PUSH8 0xFFFFFFFFFFFFFFFF DUP2 GT ISZERO PUSH2 0x731 JUMPI PUSH2 0x730 PUSH2 0x4E3 JUMP JUMPDEST JUMPDEST PUSH2 0x73D DUP5 DUP3 DUP6 ADD PUSH2 0x574 JUMP JUMPDEST PUSH1 0x0 DUP4 ADD MSTORE POP PUSH1 0x20 PUSH2 0x751 DUP5 DUP3 DUP6 ADD PUSH2 0x5C3 JUMP JUMPDEST PUSH1 0x20 DUP4 ADD MSTORE POP SWAP3 SWAP2 POP POP JUMP JUMPDEST PUSH1 0x0 PUSH1 0x20 DUP3 DUP5 SUB SLT ISZERO PUSH2 0x773 JUMPI PUSH2 0x772 PUSH2 0x448 JUMP JUMPDEST JUMPDEST PUSH1 0x0 DUP3 ADD CALLDATALOAD PUSH8 0xFFFFFFFFFFFFFFFF DUP2 GT ISZERO PUSH2 0x791 JUMPI PUSH2 0x790 PUSH2 0x44D JUMP JUMPDEST JUMPDEST PUSH2 0x79D DUP5 DUP3 DUP6 ADD PUSH2 0x6F1 JUMP JUMPDEST SWAP2 POP POP SWAP3 SWAP2 POP POP JUMP JUMPDEST PUSH1 0x0 PUSH8 0xFFFFFFFFFFFFFFFF DUP3 GT ISZERO PUSH2 0x7C1 JUMPI PUSH2 0x7C0 PUSH2 0x468 JUMP JUMPDEST JUMPDEST PUSH2 0x7CA DUP3 PUSH2 0x457 JUMP JUMPDEST SWAP1 POP PUSH1 0x20 DUP2 ADD SWAP1 POP SWAP2 SWAP1 POP JUMP JUMPDEST PUSH1 0x0 PUSH2 0x7EA PUSH2 0x7E5 DUP5 PUSH2 0x7A6 JUMP JUMPDEST PUSH2 0x4C8 JUMP JUMPDEST SWAP1 POP DUP3 DUP2 MSTORE PUSH1 0x20 DUP2 ADD DUP5 DUP5 DUP5 ADD GT ISZERO PUSH2 0x806 JUMPI PUSH2 0x805 PUSH2 0x4ED JUMP JUMPDEST JUMPDEST PUSH2 0x811 DUP5 DUP3 DUP6 PUSH2 0x523 JUMP JUMPDEST POP SWAP4 SWAP3 POP POP POP JUMP JUMPDEST PUSH1 0x0 DUP3 PUSH1 0x1F DUP4 ADD SLT PUSH2 0x82E JUMPI PUSH2 0x82D PUSH2 0x4E8 JUMP JUMPDEST JUMPDEST DUP2 CALLDATALOAD PUSH2 0x83E DUP5 DUP3 PUSH1 0x20 DUP7 ADD PUSH2 0x7D7 JUMP JUMPDEST SWAP2 POP POP SWAP3 SWAP2 POP POP JUMP JUMPDEST PUSH1 0x0 PUSH20 0xFFFFFFFFFFFFFFFFFFFFFFFFFFFFFFFFFFFFFFFF DUP3 AND SWAP1 POP SWAP2 SWAP1 POP JUMP JUMPDEST PUSH1 0x0 PUSH2 0x872 DUP3 PUSH2 0x847 JUMP JUMPDEST SWAP1 POP SWAP2 SWAP1 POP JUMP JUMPDEST PUSH2 0x882 DUP2 PUSH2 0x867 JUMP JUMPDEST DUP2 EQ PUSH2 0x88D JUMPI PUSH1 0x0 DUP1 REVERT JUMPDEST POP JUMP JUMPDEST PUSH1 0x0 DUP2 CALLDATALOAD SWAP1 POP PUSH2 0x89F DUP2 PUSH2 0x879 JUMP JUMPDEST SWAP3 SWAP2 POP POP JUMP JUMPDEST PUSH1 0x0 PUSH1 0x60 DUP3 DUP5 SUB SLT ISZERO PUSH2 0x8BB JUMPI PUSH2 0x8BA PUSH2 0x452 JUMP JUMPDEST JUMPDEST PUSH2 0x8C5 PUSH1 0x60 PUSH2 0x4C8 JUMP JUMPDEST SWAP1 POP PUSH1 0x0 DUP3 ADD CALLDATALOAD PUSH8 0xFFFFFFFFFFFFFFFF DUP2 GT ISZERO PUSH2 0x8E5 JUMPI PUSH2 0x8E4 PUSH2 0x4E3 JUMP JUMPDEST JUMPDEST PUSH2 0x8F1 DUP5 DUP3 DUP6 ADD PUSH2 0x819 JUMP JUMPDEST PUSH1 0x0 DUP4 ADD MSTORE POP PUSH1 0x20 PUSH2 0x905 DUP5 DUP3 DUP6 ADD PUSH2 0x890 JUMP JUMPDEST PUSH1 0x20 DUP4 ADD MSTORE POP PUSH1 0x40 DUP3 ADD CALLDATALOAD PUSH8 0xFFFFFFFFFFFFFFFF DUP2 GT ISZERO PUSH2 0x929 JUMPI PUSH2 0x928 PUSH2 0x4E3 JUMP JUMPDEST JUMPDEST PUSH2 0x935 DUP5 DUP3 DUP6 ADD PUSH2 0x6F1 JUMP JUMPDEST PUSH1 0x40 DUP4 ADD MSTORE POP SWAP3 SWAP2 POP POP JUMP JUMPDEST PUSH1 0x0 PUSH1 0x20 DUP3 DUP5 SUB SLT ISZERO PUSH2 0x957 JUMPI PUSH2 0x956 PUSH2 0x448 JUMP JUMPDEST JUMPDEST PUSH1 0x0 DUP3 ADD CALLDATALOAD PUSH8 0xFFFFFFFFFFFFFFFF DUP2 GT ISZERO PUSH2 0x975 JUMPI PUSH2 0x974 PUSH2 0x44D JUMP JUMPDEST JUMPDEST PUSH2 0x981 DUP5 DUP3 DUP6 ADD PUSH2 0x8A5 JUMP JUMPDEST SWAP2 POP POP SWAP3 SWAP2 POP POP JUMP JUMPDEST PUSH2 0x993 DUP2 PUSH2 0x867 JUMP JUMPDEST DUP3 MSTORE POP POP JUMP JUMPDEST PUSH1 0x0 PUSH1 0x20 DUP3 ADD SWAP1 POP PUSH2 0x9AE PUSH1 0x0 DUP4 ADD DUP5 PUSH2 0x98A JUMP JUMPDEST SWAP3 SWAP2 POP POP JUMP JUMPDEST PUSH1 0x0 DUP2 MLOAD SWAP1 POP SWAP2 SWAP1 POP JUMP JUMPDEST PUSH1 0x0 DUP3 DUP3 MSTORE PUSH1 0x20 DUP3 ADD SWAP1 POP SWAP3 SWAP2 POP POP JUMP JUMPDEST PUSH1 0x0 JUMPDEST DUP4 DUP2 LT ISZERO PUSH2 0x9EE JUMPI DUP1 DUP3 ADD MLOAD DUP2 DUP5 ADD MSTORE PUSH1 0x20 DUP2 ADD SWAP1 POP PUSH2 0x9D3 JUMP JUMPDEST DUP4 DUP2 GT ISZERO PUSH2 0x9FD JUMPI PUSH1 0x0 DUP5 DUP5 ADD MSTORE JUMPDEST POP POP POP POP JUMP JUMPDEST PUSH1 0x0 PUSH2 0xA0E DUP3 PUSH2 0x9B4 JUMP JUMPDEST PUSH2 0xA18 DUP2 DUP6 PUSH2 0x9BF JUMP JUMPDEST SWAP4 POP PUSH2 0xA28 DUP2 DUP6 PUSH1 0x20 DUP7 ADD PUSH2 0x9D0 JUMP JUMPDEST PUSH2 0xA31 DUP2 PUSH2 0x457 JUMP JUMPDEST DUP5 ADD SWAP2 POP POP SWAP3 SWAP2 POP POP JUMP JUMPDEST PUSH2 0xA45 DUP2 PUSH2 0x5A2 JUMP JUMPDEST DUP3 MSTORE POP POP JUMP JUMPDEST PUSH1 0x0 PUSH1 0x80 DUP3 ADD SWAP1 POP PUSH2 0xA60 PUSH1 0x0 DUP4 ADD DUP8 PUSH2 0x6C7 JUMP JUMPDEST DUP2 DUP2 SUB PUSH1 0x20 DUP4 ADD MSTORE PUSH2 0xA72 DUP2 DUP7 PUSH2 0xA03 JUMP JUMPDEST SWAP1 POP DUP2 DUP2 SUB PUSH1 0x40 DUP4 ADD MSTORE PUSH2 0xA86 DUP2 DUP6 PUSH2 0xA03 JUMP JUMPDEST SWAP1 POP PUSH2 0xA95 PUSH1 0x60 DUP4 ADD DUP5 PUSH2 0xA3C JUMP JUMPDEST SWAP6 SWAP5 POP POP POP POP POP JUMP JUMPDEST PUSH1 0x0 PUSH1 0x60 DUP3 ADD SWAP1 POP PUSH2 0xAB3 PUSH1 0x0 DUP4 ADD DUP7 PUSH2 0x6C7 JUMP JUMPDEST DUP2 DUP2 SUB PUSH1 0x20 DUP4 ADD MSTORE PUSH2 0xAC5 DUP2 DUP6 PUSH2 0xA03 JUMP JUMPDEST SWAP1 POP PUSH2 0xAD4 PUSH1 0x40 DUP4 ADD DUP5 PUSH2 0xA3C JUMP JUMPDEST SWAP5 SWAP4 POP POP POP POP JUMP JUMPDEST PUSH1 0x0 DUP2 SWAP1 POP SWAP3 SWAP2 POP POP JUMP JUMPDEST PUSH32 0x1901000000000000000000000000000000000000000000000000000000000000 PUSH1 0x0 DUP3 ADD MSTORE POP JUMP JUMPDEST PUSH1 0x0 PUSH2 0xB1D PUSH1 0x2 DUP4 PUSH2 0xADC JUMP JUMPDEST SWAP2 POP PUSH2 0xB28 DUP3 PUSH2 0xAE7 JUMP JUMPDEST PUSH1 0x2 DUP3 ADD SWAP1 POP SWAP2 SWAP1 POP JUMP JUMPDEST PUSH1 0x0 DUP2 SWAP1 POP SWAP2 SWAP1 POP JUMP JUMPDEST PUSH2 0xB4E PUSH2 0xB49 DUP3 PUSH2 0x6BD JUMP JUMPDEST PUSH2 0xB33 JUMP JUMPDEST DUP3 MSTORE POP POP JUMP JUMPDEST PUSH1 0x0 PUSH2 0xB5F DUP3 PUSH2 0xB10 JUMP JUMPDEST SWAP2 POP PUSH2 0xB6B DUP3 DUP6 PUSH2 0xB3D JUMP JUMPDEST PUSH1 0x20 DUP3 ADD SWAP2 POP PUSH2 0xB7B DUP3 DUP5 PUSH2 0xB3D JUMP JUMPDEST PUSH1 0x20 DUP3 ADD SWAP2 POP DUP2 SWAP1 POP SWAP4 SWAP3 POP POP POP JUMP JUMPDEST PUSH1 0x0 DUP2 MLOAD SWAP1 POP SWAP2 SWAP1 POP JUMP JUMPDEST PUSH1 0x0 DUP3 DUP3 MSTORE PUSH1 0x20 DUP3 ADD SWAP1 POP SWAP3 SWAP2 POP POP JUMP JUMPDEST PUSH1 0x0 PUSH2 0xBB2 DUP3 PUSH2 0xB8B JUMP JUMPDEST PUSH2 0xBBC DUP2 DUP6 PUSH2 0xB96 JUMP JUMPDEST SWAP4 POP PUSH2 0xBCC DUP2 DUP6 PUSH1 0x20 DUP7 ADD PUSH2 0x9D0 JUMP JUMPDEST PUSH2 0xBD5 DUP2 PUSH2 0x457 JUMP JUMPDEST DUP5 ADD SWAP2 POP POP SWAP3 SWAP2 POP POP JUMP JUMPDEST PUSH1 0x0 PUSH1 0x40 DUP3 ADD SWAP1 POP PUSH2 0xBF5 PUSH1 0x0 DUP4 ADD DUP6 PUSH2 0x6C7 JUMP JUMPDEST DUP2 DUP2 SUB PUSH1 0x20 DUP4 ADD MSTORE PUSH2 0xC07 DUP2 DUP5 PUSH2 0xBA7 JUMP JUMPDEST SWAP1 POP SWAP4 SWAP3 POP POP POP JUMP JUMPDEST PUSH1 0x0 PUSH32 0xFFFFFFFF00000000000000000000000000000000000000000000000000000000 DUP3 AND SWAP1 POP SWAP2 SWAP1 POP JUMP JUMPDEST PUSH2 0xC45 DUP2 PUSH2 0xC10 JUMP JUMPDEST DUP2 EQ PUSH2 0xC50 JUMPI PUSH1 0x0 DUP1 REVERT JUMPDEST POP JUMP JUMPDEST PUSH1 0x0 DUP2 MLOAD SWAP1 POP PUSH2 0xC62 DUP2 PUSH2 0xC3C JUMP JUMPDEST SWAP3 SWAP2 POP POP JUMP JUMPDEST PUSH1 0x0 PUSH1 0x20 DUP3 DUP5 SUB SLT ISZERO PUSH2 0xC7E JUMPI PUSH2 0xC7D PUSH2 0x448 JUMP JUMPDEST JUMPDEST PUSH1 0x0 PUSH2 0xC8C DUP5 DUP3 DUP6 ADD PUSH2 0xC53 JUMP JUMPDEST SWAP2 POP POP SWAP3 SWAP2 POP POP JUMP JUMPDEST PUSH32 0x494E56414C49445F5349474E4154555245000000000000000000000000000000 PUSH1 0x0 DUP3 ADD MSTORE POP JUMP JUMPDEST PUSH1 0x0 PUSH2 0xCCB PUSH1 0x11 DUP4 PUSH2 0x9BF JUMP JUMPDEST SWAP2 POP PUSH2 0xCD6 DUP3 PUSH2 0xC95 JUMP JUMPDEST PUSH1 0x20 DUP3 ADD SWAP1 POP SWAP2 SWAP1 POP JUMP JUMPDEST PUSH1 0x0 PUSH1 0x20 DUP3 ADD SWAP1 POP DUP2 DUP2 SUB PUSH1 0x0 DUP4 ADD MSTORE PUSH2 0xCFA DUP2 PUSH2 0xCBE JUMP JUMPDEST SWAP1 POP SWAP2 SWAP1 POP JUMP JUMPDEST PUSH1 0x0 PUSH1 0xFF DUP3 AND SWAP1 POP SWAP2 SWAP1 POP JUMP JUMPDEST PUSH32 0x4E487B7100000000000000000000000000000000000000000000000000000000 PUSH1 0x0 MSTORE PUSH1 0x11 PUSH1 0x4 MSTORE PUSH1 0x24 PUSH1 0x0 REVERT JUMPDEST PUSH1 0x0 PUSH2 0xD48 DUP3 PUSH2 0xD01 JUMP JUMPDEST SWAP2 POP PUSH2 0xD53 DUP4 PUSH2 0xD01 JUMP JUMPDEST SWAP3 POP DUP3 PUSH1 0xFF SUB DUP3 GT ISZERO PUSH2 0xD69 JUMPI PUSH2 0xD68 PUSH2 0xD0E JUMP JUMPDEST JUMPDEST DUP3 DUP3 ADD SWAP1 POP SWAP3 SWAP2 POP POP JUMP JUMPDEST PUSH2 0xD7D DUP2 PUSH2 0xD01 JUMP JUMPDEST DUP3 MSTORE POP POP JUMP JUMPDEST PUSH1 0x0 PUSH1 0x80 DUP3 ADD SWAP1 POP PUSH2 0xD98 PUSH1 0x0 DUP4 ADD DUP8 PUSH2 0x6C7 JUMP JUMPDEST PUSH2 0xDA5 PUSH1 0x20 DUP4 ADD DUP7 PUSH2 0xD74 JUMP JUMPDEST PUSH2 0xDB2 PUSH1 0x40 DUP4 ADD DUP6 PUSH2 0x6C7 JUMP JUMPDEST PUSH2 0xDBF PUSH1 0x60 DUP4 ADD DUP5 PUSH2 0x6C7 JUMP JUMPDEST SWAP6 SWAP5 POP POP POP POP POP JUMP INVALID LOG2 PUSH5 0x6970667358 0x22 SLT KECCAK256 0xCA EXP SDIV 0xA5 LT JUMP 0x5D SWAP15 0xE4 SWAP5 PUSH18 0xDE5FD24A13AE81E1FF3AEE845A020D6CB872 DUP6 0xBD 0xC7 PUSH5 0x736F6C6343 STOP ADDMOD 0xD STOP CALLER "},"methodIdentifiers":{"GET_EIP712DOMAIN_PACKETHASH((string,string,uint256))":"4bc39162","GET_PERSON_PACKETHASH((string,uint256))":"8f4f876a","getDomainHash()":"83ebb771","verifySignedPerson((bytes,address,(string,uint256)))":"ea23cf6e"}}}}}