{
  "_format": "hh-sol-artifact-1",
  "contractName": "MockEIP712Decoder",
  "sourceName": "contracts/MockEIP712Decoder.sol",
  "abi": [
    {
      "inputs": [
        {
          "internalType": "uint256",
          "name": "chainId",
          "type": "uint256"
        }
      ],
      "stateMutability": "nonpayable",
      "type": "constructor"
    },
    {
      "inputs": [
        {
          "components": [
            {
              "internalType": "string",
              "name": "name",
              "type": "string"
            },
            {
              "internalType": "string",
              "name": "version",
              "type": "string"
            },
            {
              "internalType": "uint256",
              "name": "chainId",
              "type": "uint256"
            }
          ],
          "internalType": "struct EIP712Domain",
          "name": "_input",
          "type": "tuple"
        }
      ],
      "name": "GET_EIP712DOMAIN_PACKETHASH",
      "outputs": [
        {
          "internalType": "bytes32",
          "name": "",
          "type": "bytes32"
        }
      ],
      "stateMutability": "pure",
      "type": "function"
    },
    {
      "inputs": [
        {
          "components": [
            {
              "internalType": "string",
              "name": "name",
              "type": "string"
            },
            {
              "internalType": "uint256",
              "name": "age",
              "type": "uint256"
            }
          ],
          "internalType": "struct Person",
          "name": "_input",
          "type": "tuple"
        }
      ],
      "name": "GET_PERSON_PACKETHASH",
      "outputs": [
        {
          "internalType": "bytes32",
          "name": "",
          "type": "bytes32"
        }
      ],
      "stateMutability": "pure",
      "type": "function"
    },
    {
      "inputs": [],
      "name": "getDomainHash",
      "outputs": [
        {
          "internalType": "bytes32",
          "name": "",
          "type": "bytes32"
        }
      ],
      "stateMutability": "view",
      "type": "function"
    },
    {
      "inputs": [
        {
          "components": [
            {
              "internalType": "bytes",
              "name": "signature",
              "type": "bytes"
            },
            {
              "internalType": "address",
              "name": "signer",
              "type": "address"
            },
            {
              "components": [
                {
                  "internalType": "string",
                  "name": "name",
                  "type": "string"
                },
                {
                  "internalType": "uint256",
                  "name": "age",
                  "type": "uint256"
                }
              ],
              "internalType": "struct Person",
              "name": "message",
              "type": "tuple"
            }
          ],
          "internalType": "struct signedPerson",
          "name": "_input",
          "type": "tuple"
        }
      ],
      "name": "verifySignedPerson",
      "outputs": [
        {
          "internalType": "address",
          "name": "",
          "type": "address"
        }
      ],
      "stateMutability": "view",
      "type": "function"
    }
  ],
  "bytecode": "0x60806040523480156200001157600080fd5b506040516200105b3803806200105b83398181016040528101906200003791906200014d565b7fc2f8787176b8ac6bf7215b4adcc1e069bf4ab82d9ab1df05a57a91d425935b6e6040518060400160405280601181526020017f4d6f636b4549503731324465636f646572000000000000000000000000000000815250805190602001206040518060400160405280600181526020017f3100000000000000000000000000000000000000000000000000000000000000815250805190602001208330604051602001620000ea959493929190620001f0565b60405160208183030381529060405280519060200120600081905550506200024d565b600080fd5b6000819050919050565b620001278162000112565b81146200013357600080fd5b50565b60008151905062000147816200011c565b92915050565b6000602082840312156200016657620001656200010d565b5b6000620001768482850162000136565b91505092915050565b6000819050919050565b62000194816200017f565b82525050565b620001a58162000112565b82525050565b600073ffffffffffffffffffffffffffffffffffffffff82169050919050565b6000620001d882620001ab565b9050919050565b620001ea81620001cb565b82525050565b600060a08201905062000207600083018862000189565b62000216602083018762000189565b62000225604083018662000189565b6200023460608301856200019a565b620002436080830184620001df565b9695505050505050565b610dfe806200025d6000396000f3fe608060405234801561001057600080fd5b506004361061004c5760003560e01c80634bc391621461005157806383ebb771146100815780638f4f876a1461009f578063ea23cf6e146100cf575b600080fd5b61006b60048036038101906100669190610674565b6100ff565b60405161007891906106d6565b60405180910390f35b610089610166565b60405161009691906106d6565b60405180910390f35b6100b960048036038101906100b4919061075d565b61016f565b6040516100c691906106d6565b60405180910390f35b6100e960048036038101906100e49190610941565b6101d0565b6040516100f69190610999565b60405180910390f35b6000807fc2f8787176b8ac6bf7215b4adcc1e069bf4ab82d9ab1df05a57a91d425935b6e8360000151846020015185604001516040516020016101459493929190610a4b565b60405160208183030381529060405290508080519060200120915050919050565b60008054905090565b6000807f4b1b66e1dad0eb5853b62dd86ebac7b66c400129b72da1ff5fda43303a4f44db836000015184602001516040516020016101af93929190610a9e565b60405160208183030381529060405290508080519060200120915050919050565b6000806101e0836040015161016f565b905060006101ec610166565b826040516020016101fe929190610b54565b604051602081830303815290604052805190602001209050600073ffffffffffffffffffffffffffffffffffffffff16846020015173ffffffffffffffffffffffffffffffffffffffff160361026b57600061025e82866000015161036b565b9050809350505050610366565b6000846020015173ffffffffffffffffffffffffffffffffffffffff16631626ba7e8387600001516040518363ffffffff1660e01b81526004016102b0929190610be0565b602060405180830381865afa1580156102cd573d6000803e3d6000fd5b505050506040513d601f19601f820116820180604052508101906102f19190610c68565b9050631626ba7e60e01b817bffffffffffffffffffffffffffffffffffffffffffffffffffffffff19161461035b576040517f08c379a000000000000000000000000000000000000000000000000000000000815260040161035290610ce1565b60405180910390fd5b846020015193505050505b919050565b60008060008060418551146103865760009350505050610438565b6020850151925060408501519150606085015160001a9050601b8160ff1610156103ba57601b816103b79190610d3d565b90505b601b8160ff16141580156103d25750601c8160ff1614155b156103e35760009350505050610438565b600186828585604051600081526020016040526040516104069493929190610d83565b6020604051602081039080840390855afa158015610428573d6000803e3d6000fd5b5050506020604051035193505050505b92915050565b6000604051905090565b600080fd5b600080fd5b600080fd5b6000601f19601f8301169050919050565b7f4e487b7100000000000000000000000000000000000000000000000000000000600052604160045260246000fd5b6104a082610457565b810181811067ffffffffffffffff821117156104bf576104be610468565b5b80604052505050565b60006104d261043e565b90506104de8282610497565b919050565b600080fd5b600080fd5b600080fd5b600067ffffffffffffffff82111561050d5761050c610468565b5b61051682610457565b9050602081019050919050565b82818337600083830152505050565b6000610545610540846104f2565b6104c8565b905082815260208101848484011115610561576105606104ed565b5b61056c848285610523565b509392505050565b600082601f830112610589576105886104e8565b5b8135610599848260208601610532565b91505092915050565b6000819050919050565b6105b5816105a2565b81146105c057600080fd5b50565b6000813590506105d2816105ac565b92915050565b6000606082840312156105ee576105ed610452565b5b6105f860606104c8565b9050600082013567ffffffffffffffff811115610618576106176104e3565b5b61062484828501610574565b600083015250602082013567ffffffffffffffff811115610648576106476104e3565b5b61065484828501610574565b6020830152506040610668848285016105c3565b60408301525092915050565b60006020828403121561068a57610689610448565b5b600082013567ffffffffffffffff8111156106a8576106a761044d565b5b6106b4848285016105d8565b91505092915050565b6000819050919050565b6106d0816106bd565b82525050565b60006020820190506106eb60008301846106c7565b92915050565b60006040828403121561070757610706610452565b5b61071160406104c8565b9050600082013567ffffffffffffffff811115610731576107306104e3565b5b61073d84828501610574565b6000830152506020610751848285016105c3565b60208301525092915050565b60006020828403121561077357610772610448565b5b600082013567ffffffffffffffff8111156107915761079061044d565b5b61079d848285016106f1565b91505092915050565b600067ffffffffffffffff8211156107c1576107c0610468565b5b6107ca82610457565b9050602081019050919050565b60006107ea6107e5846107a6565b6104c8565b905082815260208101848484011115610806576108056104ed565b5b610811848285610523565b509392505050565b600082601f83011261082e5761082d6104e8565b5b813561083e8482602086016107d7565b91505092915050565b600073ffffffffffffffffffffffffffffffffffffffff82169050919050565b600061087282610847565b9050919050565b61088281610867565b811461088d57600080fd5b50565b60008135905061089f81610879565b92915050565b6000606082840312156108bb576108ba610452565b5b6108c560606104c8565b9050600082013567ffffffffffffffff8111156108e5576108e46104e3565b5b6108f184828501610819565b600083015250602061090584828501610890565b602083015250604082013567ffffffffffffffff811115610929576109286104e3565b5b610935848285016106f1565b60408301525092915050565b60006020828403121561095757610956610448565b5b600082013567ffffffffffffffff8111156109755761097461044d565b5b610981848285016108a5565b91505092915050565b61099381610867565b82525050565b60006020820190506109ae600083018461098a565b92915050565b600081519050919050565b600082825260208201905092915050565b60005b838110156109ee5780820151818401526020810190506109d3565b838111156109fd576000848401525b50505050565b6000610a0e826109b4565b610a1881856109bf565b9350610a288185602086016109d0565b610a3181610457565b840191505092915050565b610a45816105a2565b82525050565b6000608082019050610a6060008301876106c7565b8181036020830152610a728186610a03565b90508181036040830152610a868185610a03565b9050610a956060830184610a3c565b95945050505050565b6000606082019050610ab360008301866106c7565b8181036020830152610ac58185610a03565b9050610ad46040830184610a3c565b949350505050565b600081905092915050565b7f1901000000000000000000000000000000000000000000000000000000000000600082015250565b6000610b1d600283610adc565b9150610b2882610ae7565b600282019050919050565b6000819050919050565b610b4e610b49826106bd565b610b33565b82525050565b6000610b5f82610b10565b9150610b6b8285610b3d565b602082019150610b7b8284610b3d565b6020820191508190509392505050565b600081519050919050565b600082825260208201905092915050565b6000610bb282610b8b565b610bbc8185610b96565b9350610bcc8185602086016109d0565b610bd581610457565b840191505092915050565b6000604082019050610bf560008301856106c7565b8181036020830152610c078184610ba7565b90509392505050565b60007fffffffff0000000000000000000000000000000000000000000000000000000082169050919050565b610c4581610c10565b8114610c5057600080fd5b50565b600081519050610c6281610c3c565b92915050565b600060208284031215610c7e57610c7d610448565b5b6000610c8c84828501610c53565b91505092915050565b7f494e56414c49445f5349474e4154555245000000000000000000000000000000600082015250565b6000610ccb6011836109bf565b9150610cd682610c95565b602082019050919050565b60006020820190508181036000830152610cfa81610cbe565b9050919050565b600060ff82169050919050565b7f4e487b7100000000000000000000000000000000000000000000000000000000600052601160045260246000fd5b6000610d4882610d01565b9150610d5383610d01565b92508260ff03821115610d6957610d68610d0e565b5b828201905092915050565b610d7d81610d01565b82525050565b6000608082019050610d9860008301876106c7565b610da56020830186610d74565b610db260408301856106c7565b610dbf60608301846106c7565b9594505050505056fea2646970667358221220ca0a05a510565d9ee49471de5fd24a13ae81e1ff3aee845a020d6cb87285bdc764736f6c634300080d0033",
  "linkReferences": {},
  "deployedLinkReferences": {}
}